{
  "_format": "hh3-artifact-1",
  "contractName": "TokenA",
  "sourceName": "contracts/tokenA.sol",
  "abi": [
    {
      "inputs": [],
      "stateMutability": "nonpayable",
      "type": "constructor"
    },
    {
      "anonymous": false,
      "inputs": [
        {
          "indexed": true,
          "internalType": "address",
          "name": "owner",
          "type": "address"
        },
        {
          "indexed": true,
          "internalType": "address",
          "name": "spender",
          "type": "address"
        },
        {
          "indexed": false,
          "internalType": "uint256",
          "name": "amount",
          "type": "uint256"
        }
      ],
      "name": "Approve",
      "type": "event"
    },
    {
      "anonymous": false,
      "inputs": [
        {
          "indexed": true,
          "internalType": "address",
          "name": "sender",
          "type": "address"
        },
        {
          "indexed": true,
          "internalType": "address",
          "name": "reciepient",
          "type": "address"
        },
        {
          "indexed": true,
          "internalType": "uint256",
          "name": "amount",
          "type": "uint256"
        }
      ],
      "name": "Transfer",
      "type": "event"
    },
    {
      "anonymous": false,
      "inputs": [
        {
          "indexed": true,
          "internalType": "address",
          "name": "owner",
          "type": "address"
        },
        {
          "indexed": true,
          "internalType": "address",
          "name": "spender",
          "type": "address"
        },
        {
          "indexed": false,
          "internalType": "uint256",
          "name": "amount",
          "type": "uint256"
        }
      ],
      "name": "TransferFrom",
      "type": "event"
    },
    {
      "inputs": [
        {
          "internalType": "address",
          "name": "owner",
          "type": "address"
        },
        {
          "internalType": "address",
          "name": "spender",
          "type": "address"
        }
      ],
      "name": "allowance",
      "outputs": [
        {
          "internalType": "uint256",
          "name": "",
          "type": "uint256"
        }
      ],
      "stateMutability": "view",
      "type": "function"
    },
    {
      "inputs": [
        {
          "internalType": "address",
          "name": "spender",
          "type": "address"
        },
        {
          "internalType": "uint256",
          "name": "amount",
          "type": "uint256"
        }
      ],
      "name": "approve",
      "outputs": [
        {
          "internalType": "bool",
          "name": "",
          "type": "bool"
        }
      ],
      "stateMutability": "nonpayable",
      "type": "function"
    },
    {
      "inputs": [
        {
          "internalType": "address",
          "name": "tokenHolder",
          "type": "address"
        }
      ],
      "name": "balanceOf",
      "outputs": [
        {
          "internalType": "uint256",
          "name": "",
          "type": "uint256"
        }
      ],
      "stateMutability": "view",
      "type": "function"
    },
    {
      "inputs": [
        {
          "internalType": "address",
          "name": "receiver",
          "type": "address"
        },
        {
          "internalType": "uint256",
          "name": "amount",
          "type": "uint256"
        }
      ],
      "name": "mint",
      "outputs": [],
      "stateMutability": "nonpayable",
      "type": "function"
    },
    {
      "inputs": [],
      "name": "name",
      "outputs": [
        {
          "internalType": "string",
          "name": "",
          "type": "string"
        }
      ],
      "stateMutability": "view",
      "type": "function"
    },
    {
      "inputs": [],
      "name": "symbol",
      "outputs": [
        {
          "internalType": "string",
          "name": "",
          "type": "string"
        }
      ],
      "stateMutability": "view",
      "type": "function"
    },
    {
      "inputs": [
        {
          "internalType": "address",
          "name": "recipient",
          "type": "address"
        },
        {
          "internalType": "uint256",
          "name": "amount",
          "type": "uint256"
        }
      ],
      "name": "transfer",
      "outputs": [
        {
          "internalType": "bool",
          "name": "",
          "type": "bool"
        }
      ],
      "stateMutability": "nonpayable",
      "type": "function"
    },
    {
      "inputs": [
        {
          "internalType": "address",
          "name": "owner",
          "type": "address"
        },
        {
          "internalType": "address",
          "name": "spender",
          "type": "address"
        },
        {
          "internalType": "uint256",
          "name": "amount",
          "type": "uint256"
        }
      ],
      "name": "transferFrom",
      "outputs": [
        {
          "internalType": "bool",
          "name": "",
          "type": "bool"
        }
      ],
      "stateMutability": "nonpayable",
      "type": "function"
    }
  ],
  "bytecode": "0x608060405234801561000f575f5ffd5b5060405180604001604052806007815260200166546f6b656e204160c81b81525060405180604001604052806003815260200162544b4160e81b815250815f908161005a9190610107565b5060016100678282610107565b5050506101c1565b634e487b7160e01b5f52604160045260245ffd5b600181811c9082168061009757607f821691505b6020821081036100b557634e487b7160e01b5f52602260045260245ffd5b50919050565b601f82111561010257805f5260205f20601f840160051c810160208510156100e05750805b601f840160051c820191505b818110156100ff575f81556001016100ec565b50505b505050565b81516001600160401b038111156101205761012061006f565b6101348161012e8454610083565b846100bb565b6020601f821160018114610166575f831561014f5750848201515b5f19600385901b1c1916600184901b1784556100ff565b5f84815260208120601f198516915b828110156101955787850151825560209485019460019092019101610175565b50848210156101b257868401515f19600387901b60f8161c191681555b50505050600190811b01905550565b6108dc806101ce5f395ff3fe608060405234801561000f575f5ffd5b5060043610610085575f3560e01c806370a082311161005857806370a08231146100f257806395d89b4114610128578063a9059cbb14610130578063dd62ed3e14610143575f5ffd5b806306fdde0314610089578063095ea7b3146100a757806323b872dd146100ca57806340c10f19146100dd575b5f5ffd5b61009161017b565b60405161009e91906106fa565b60405180910390f35b6100ba6100b536600461074a565b61020a565b604051901515815260200161009e565b6100ba6100d8366004610772565b61029e565b6100f06100eb36600461074a565b61053b565b005b61011a6101003660046107ac565b6001600160a01b03165f9081526002602052604090205490565b60405190815260200161009e565b610091610591565b6100ba61013e36600461074a565b6105a0565b61011a6101513660046107cc565b6001600160a01b039182165f90815260036020908152604080832093909416825291909152205490565b60605f8054610189906107fd565b80601f01602080910402602001604051908101604052809291908181526020018280546101b5906107fd565b80156102005780601f106101d757610100808354040283529160200191610200565b820191905f5260205f20905b8154815290600101906020018083116101e357829003601f168201915b5050505050905090565b5f6001600160a01b03831661023a5760405162461bcd60e51b815260040161023190610835565b60405180910390fd5b335f8181526003602090815260408083206001600160a01b03881680855290835292819020869055518581529192917f6e11fb1b7f119e3f2fa29896ef5fdf8b8a2d0d4df6fe90ba8668e7d8b2ffa25e910160405180910390a35060015b92915050565b5f6001600160a01b0384166102ec5760405162461bcd60e51b8152602060048201526014602482015273496e76616c69642061646472657373207a65726f60601b6044820152606401610231565b6001600160a01b0383166103395760405162461bcd60e51b8152602060048201526014602482015273496e76616c69642061646472657373207a65726f60601b6044820152606401610231565b5f82116103795760405162461bcd60e51b815260206004820152600e60248201526d125b9d985b1a5908185b5bdd5b9d60921b6044820152606401610231565b6001600160a01b038085165f90815260036020908152604080832093871683529290522054828110156103e75760405162461bcd60e51b8152602060048201526016602482015275496e73756666696369656e7420616c6c6f77616e636560501b6044820152606401610231565b6001600160a01b0385165f9081526002602052604090205483111561044e5760405162461bcd60e51b815260206004820152601a60248201527f496e73756666696369656e74206f776e65722062616c616e63650000000000006044820152606401610231565b6001600160a01b038086165f90815260036020908152604080832093881683529290529081208054859290610484908490610880565b90915550506001600160a01b0385165f90815260026020526040812080548592906104b0908490610880565b90915550506001600160a01b0384165f90815260026020526040812080548592906104dc908490610893565b92505081905550836001600160a01b0316856001600160a01b03167fc0d84ce5c7ff9ca21adb0f8436ff3f4951b4bb78c4e2fae2b6837958b3946ffd8560405161052891815260200190565b60405180910390a3506001949350505050565b6001600160a01b0382166105615760405162461bcd60e51b815260040161023190610835565b6001600160a01b0382165f9081526002602052604081208054839290610588908490610893565b90915550505050565b606060018054610189906107fd565b5f6001600160a01b0383166105c75760405162461bcd60e51b815260040161023190610835565b5f82116106165760405162461bcd60e51b815260206004820181905260248201527f416d6f756e74206d7573742062652067726561746572207468616e207a65726f6044820152606401610231565b335f9081526002602052604090205482111561066b5760405162461bcd60e51b8152602060048201526014602482015273496e73756666696369656e742062616c616e636560601b6044820152606401610231565b335f9081526002602052604081208054849290610689908490610880565b90915550506001600160a01b0383165f90815260026020526040812080548492906106b5908490610893565b909155505060405182906001600160a01b0385169033907fddf252ad1be2c89b69c2b068fc378daa952ba7f163c4a11628f55a4df523b3ef905f90a450600192915050565b602081525f82518060208401528060208501604085015e5f604082850101526040601f19601f83011684010191505092915050565b80356001600160a01b0381168114610745575f5ffd5b919050565b5f5f6040838503121561075b575f5ffd5b6107648361072f565b946020939093013593505050565b5f5f5f60608486031215610784575f5ffd5b61078d8461072f565b925061079b6020850161072f565b929592945050506040919091013590565b5f602082840312156107bc575f5ffd5b6107c58261072f565b9392505050565b5f5f604083850312156107dd575f5ffd5b6107e68361072f565b91506107f46020840161072f565b90509250929050565b600181811c9082168061081157607f821691505b60208210810361082f57634e487b7160e01b5f52602260045260245ffd5b50919050565b6020808252601d908201527f496e76616c69642061646472657373207a65726f206465746563746564000000604082015260600190565b634e487b7160e01b5f52601160045260245ffd5b818103818111156102985761029861086c565b808201808211156102985761029861086c56fea26469706673582212207d50c62e9bafa3242d1a0197cdc66f15e1c406581155a6b68bae20d252921bb964736f6c634300081c0033",
  "linkReferences": {},
  "deployedLinkReferences": {},
  "immutableReferences": {},
  "inputSourceName": "project/contracts/tokenA.sol",
  "buildInfoId": "solc-0_8_28-f8006b3ebb72d6145744fc94ea7b113483403c22"
}