{
  "_format": "hh3-artifact-1",
  "contractName": "TokenSwap",
  "sourceName": "contracts/tokenSwap.sol",
  "abi": [
    {
      "inputs": [
        {
          "internalType": "address",
          "name": "_tokenA",
          "type": "address"
        },
        {
          "internalType": "address",
          "name": "_tokenB",
          "type": "address"
        },
        {
          "internalType": "uint256",
          "name": "_rateAB",
          "type": "uint256"
        },
        {
          "internalType": "uint256",
          "name": "_rateBA",
          "type": "uint256"
        }
      ],
      "stateMutability": "nonpayable",
      "type": "constructor"
    },
    {
      "anonymous": false,
      "inputs": [
        {
          "indexed": true,
          "internalType": "address",
          "name": "from",
          "type": "address"
        },
        {
          "indexed": true,
          "internalType": "address",
          "name": "to",
          "type": "address"
        },
        {
          "indexed": true,
          "internalType": "address",
          "name": "spender",
          "type": "address"
        },
        {
          "indexed": false,
          "internalType": "uint256",
          "name": "amount",
          "type": "uint256"
        }
      ],
      "name": "Swap",
      "type": "event"
    },
    {
      "inputs": [
        {
          "internalType": "address",
          "name": "_accountAddress",
          "type": "address"
        }
      ],
      "name": "balanceOfA",
      "outputs": [
        {
          "internalType": "uint256",
          "name": "",
          "type": "uint256"
        }
      ],
      "stateMutability": "view",
      "type": "function"
    },
    {
      "inputs": [
        {
          "internalType": "address",
          "name": "_accountAddress",
          "type": "address"
        }
      ],
      "name": "balanceOfB",
      "outputs": [
        {
          "internalType": "uint256",
          "name": "",
          "type": "uint256"
        }
      ],
      "stateMutability": "view",
      "type": "function"
    },
    {
      "inputs": [],
      "name": "contractBalances",
      "outputs": [
        {
          "internalType": "uint256",
          "name": "balanceA",
          "type": "uint256"
        },
        {
          "internalType": "uint256",
          "name": "balanceB",
          "type": "uint256"
        }
      ],
      "stateMutability": "view",
      "type": "function"
    },
    {
      "inputs": [],
      "name": "rateAB",
      "outputs": [
        {
          "internalType": "uint256",
          "name": "",
          "type": "uint256"
        }
      ],
      "stateMutability": "view",
      "type": "function"
    },
    {
      "inputs": [],
      "name": "rateBA",
      "outputs": [
        {
          "internalType": "uint256",
          "name": "",
          "type": "uint256"
        }
      ],
      "stateMutability": "view",
      "type": "function"
    },
    {
      "inputs": [
        {
          "internalType": "uint256",
          "name": "_amountA",
          "type": "uint256"
        }
      ],
      "name": "swapAtoB",
      "outputs": [],
      "stateMutability": "nonpayable",
      "type": "function"
    },
    {
      "inputs": [
        {
          "internalType": "uint256",
          "name": "_amountB",
          "type": "uint256"
        }
      ],
      "name": "swapBtoA",
      "outputs": [],
      "stateMutability": "nonpayable",
      "type": "function"
    },
    {
      "inputs": [],
      "name": "tokenA",
      "outputs": [
        {
          "internalType": "address",
          "name": "",
          "type": "address"
        }
      ],
      "stateMutability": "view",
      "type": "function"
    },
    {
      "inputs": [],
      "name": "tokenB",
      "outputs": [
        {
          "internalType": "address",
          "name": "",
          "type": "address"
        }
      ],
      "stateMutability": "view",
      "type": "function"
    }
  ],
  "bytecode": "0x6080604052348015600e575f5ffd5b50604051610a9b380380610a9b833981016040819052602b916081565b5f80546001600160a01b039586166001600160a01b031991821617909155600180549490951693169290921790925560029190915560035560bc565b80516001600160a01b0381168114607c575f5ffd5b919050565b5f5f5f5f608085870312156093575f5ffd5b609a856067565b935060a6602086016067565b6040860151606090960151949790965092505050565b6109d2806100c95f395ff3fe608060405234801561000f575f5ffd5b5060043610610090575f3560e01c80635f64b55b116100635780635f64b55b1461010a578063b94734cb1461011d578063da0d673514610126578063ddc4838d1461013b578063e0441df01461014e575f5ffd5b80630fc63d10146100945780632163885a146100c35780632a6622e6146100e05780634220604514610101575b5f5ffd5b5f546100a6906001600160a01b031681565b6040516001600160a01b0390911681526020015b60405180910390f35b6100cb610161565b604080519283526020830191909152016100ba565b6100f36100ee3660046108e1565b61023c565b6040519081526020016100ba565b6100f360025481565b6001546100a6906001600160a01b031681565b6100f360035481565b610139610134366004610907565b6102cb565b005b6100f36101493660046108e1565b6105b7565b61013961015c366004610907565b610603565b5f80546040516370a0823160e01b815230600482015282916001600160a01b0316906370a0823190602401602060405180830381865afa1580156101a7573d5f5f3e3d5ffd5b505050506040513d601f19601f820116820180604052508101906101cb919061091e565b6001546040516370a0823160e01b81523060048201529193506001600160a01b0316906370a0823190602401602060405180830381865afa158015610212573d5f5f3e3d5ffd5b505050506040513d601f19601f82011682018060405250810190610236919061091e565b90509091565b5f806001600160a01b038316156102535782610255565b335b6001546040516370a0823160e01b81526001600160a01b0380841660048301529293509116906370a08231906024015b602060405180830381865afa1580156102a0573d5f5f3e3d5ffd5b505050506040513d601f19601f820116820180604052508101906102c4919061091e565b9392505050565b5f811161031f5760405162461bcd60e51b815260206004820152601d60248201527f416d6f756e74206d7573742062652067726561746572207468616e203000000060448201526064015b60405180910390fd5b5f6064600254836103309190610935565b61033a919061095e565b6001546040516370a0823160e01b815230600482015291925082916001600160a01b03909116906370a0823190602401602060405180830381865afa158015610385573d5f5f3e3d5ffd5b505050506040513d601f19601f820116820180604052508101906103a9919061091e565b10156103f75760405162461bcd60e51b815260206004820152601d60248201527f496e73756666696369656e7420746f6b656e42206c69717569646974790000006044820152606401610316565b5f546040516323b872dd60e01b8152336004820152306024820152604481018490526001600160a01b03909116906323b872dd906064016020604051808303815f875af115801561044a573d5f5f3e3d5ffd5b505050506040513d601f19601f8201168201806040525081019061046e919061097d565b6104b35760405162461bcd60e51b8152602060048201526016602482015275151bdad95b90481d1c985b9cd9995c8819985a5b195960521b6044820152606401610316565b60015460405163a9059cbb60e01b8152336004820152602481018390526001600160a01b039091169063a9059cbb906044016020604051808303815f875af1158015610501573d5f5f3e3d5ffd5b505050506040513d601f19601f82011682018060405250810190610525919061097d565b61056a5760405162461bcd60e51b8152602060048201526016602482015275151bdad95b90881d1c985b9cd9995c8819985a5b195960521b6044820152606401610316565b6001545f5460405184815233926001600160a01b039081169216907fffebebfb273923089a3ed6bac0fd4686ac740307859becadeb82f998e30db614906020015b60405180910390a45050565b5f806001600160a01b038316156105ce57826105d0565b335b5f546040516370a0823160e01b81526001600160a01b0380841660048301529293509116906370a0823190602401610285565b5f81116106525760405162461bcd60e51b815260206004820152601d60248201527f416d6f756e74206d7573742062652067726561746572207468616e20300000006044820152606401610316565b5f6064600354836106639190610935565b61066d919061095e565b5f546040516370a0823160e01b815230600482015291925082916001600160a01b03909116906370a0823190602401602060405180830381865afa1580156106b7573d5f5f3e3d5ffd5b505050506040513d601f19601f820116820180604052508101906106db919061091e565b10156107295760405162461bcd60e51b815260206004820152601d60248201527f496e73756666696369656e7420746f6b656e41206c69717569646974790000006044820152606401610316565b6001546040516323b872dd60e01b8152336004820152306024820152604481018490526001600160a01b03909116906323b872dd906064016020604051808303815f875af115801561077d573d5f5f3e3d5ffd5b505050506040513d601f19601f820116820180604052508101906107a1919061097d565b6107e65760405162461bcd60e51b8152602060048201526016602482015275151bdad95b90881d1c985b9cd9995c8819985a5b195960521b6044820152606401610316565b5f5460405163a9059cbb60e01b8152336004820152602481018390526001600160a01b039091169063a9059cbb906044016020604051808303815f875af1158015610833573d5f5f3e3d5ffd5b505050506040513d601f19601f82011682018060405250810190610857919061097d565b61089c5760405162461bcd60e51b8152602060048201526016602482015275151bdad95b90481d1c985b9cd9995c8819985a5b195960521b6044820152606401610316565b5f5460015460405184815233926001600160a01b039081169216907fffebebfb273923089a3ed6bac0fd4686ac740307859becadeb82f998e30db614906020016105ab565b5f602082840312156108f1575f5ffd5b81356001600160a01b03811681146102c4575f5ffd5b5f60208284031215610917575f5ffd5b5035919050565b5f6020828403121561092e575f5ffd5b5051919050565b808202811582820484141761095857634e487b7160e01b5f52601160045260245ffd5b92915050565b5f8261097857634e487b7160e01b5f52601260045260245ffd5b500490565b5f6020828403121561098d575f5ffd5b815180151581146102c4575f5ffdfea26469706673582212209fa52bc86823c264bcecb8e5c20303de9ac6daa3dda686ba584713ca5682b62964736f6c634300081c0033",
  "linkReferences": {},
  "deployedLinkReferences": {},
  "immutableReferences": {},
  "inputSourceName": "project/contracts/tokenSwap.sol",
  "buildInfoId": "solc-0_8_28-de689a60c83717b67bd850457d9a4af49c01b935"
}